:04088C00CEF85EFE46
:100890001AAE6EF86EF4008825FA44D0017006C3D3
:1008A0007FE02EF42EF8EAA11EFE8EF2007805C835
:1008B000500400056406000707CE017802C900F065
:1008C000A60914E490060107A5F045F201F0E20D37
:1008D00067F002C200002ECE45F02B912A9046F020
:1008E00006F046F00A0229F005F2A5F001F0E20D4B
:1008F00067F002C201001ECE45F046F046F02B9193
:100900002A900A0229F005F2A5F001F0E20D67F045
:1009100002C202000FCE45F046F046F02B912A901D
:1009200046F00A0229F005F2A5F001F0E20D67F0A9
:100930003DC20300008200001190E2EF00E013903E
:10094000E4EF1390E6EF1390E8EF1390EAEF1390C3
:10095000ECEF1390EEEF1190F0EF1190F1EF82A019
:10096000A4F2D2A059F2D2A05AF2D0A05BF2D2A047
:100970005CF2D0A05DF2E2A059F2E2A05AF2E0A04F
:100980005BF2E2A05CF2E0A05DF280801A90208130
:100990002A91038144D04A90138001301190A4F22F
:1009A00000E000F0A2087EE000F0A2087DE000F088
:0209B000A2089B
:0E1302005EFE1AAE5EF8008800001190E2EF69
:101310001392E4EF42B01390E6EF44B01390E8EF7D
:1013200046B01390EAEF00E01390ECEF48B0139052
:10133000EEEF00001190F0EF1190F1EF1290E6EF58
:1013400008C81290EAEF05C801E01EF8EAA11EFEE7
:101350001FFE1090A5F20120017002C87FE0F5CEBB
:1013600001001190F1EF80801A901190A1F201001C
:081370001190A3F200E0E9CEA8
:100500005EFE1AAE5EF8008801001190E2EF1392D1
:10051000E4EF42B01390E6EF44B01390E8EF46B03A
:100520001390EAEF00E01390ECEF48B01390EEEF79
:1005300000001190F0EF1190F1EF1290E6EF08C873
:100540001290EAEF05C801E01EF8EAA11EFE1FFEA8
:100550001090A5F20120017002C87FE0F5CE0100E5
:100560001190F1EF1290E6EF04C880801A900130EC
:1005700002CE80801A901190A1F201001190A3F296
:0405800000E0E2CEE7
:040E0C00CEF85EFCC2
:100E10005EF41090A5F200811090F1EF0EC9017000
:100E20001CC9027002C800F02E0F037002C800F047
:100E3000CE0F047002C800F022101290EEEF09C924
:100E400005F400E01390EEEF1092F0EF1290ECEF4B
:100E500043F001E01EF41EFC8EF2108004200470AA
:100E600017C800001190F1EF02001190F0EF0000A0
:100E70001190A3F21290EEEF09C905F400E013906F
:100E8000EEEF1092F0EF1290ECEF43F001E0E2CEC3
:100E90001080022002700AC800001190F1EF0100DA
:100EA0001190F0EF02001190A3F23ECE1290E6EF07
:100EB00015C902001190F1EF129CE4EFC09011905F
:100EC000A2F2C5F081E01390E4EF1290E6EFFFE0AC
:100ED0001390E6EF01001190A3F226CE1090E2EFFE
:100EE0000FC904001190F1EF01041290EAEFFFE046
:100EF0001292ECEF27F001C881041194A3F214CEF2
:100F000003001190F1EF129CE8EFC0901190A2F253
:100F1000C5F081E01390E8EF1290ECEF81E01390C0
:100F2000ECEF01001190A3F200E000F0540E1080ED
:100F3000022002700BC800001190F1EF0100119027
:100F4000F0EF02001190A3F200F0C80F1290E6EF4C
:100F500012C9129CE4EFC0901190A2F2C5F081E09A
:100F60001390E4EF1290E6EFFFE01390E6EF01003C
:100F70001190A3F229CE1290EAEF07C80000119059
:100F8000F1EF02001190A3F21FCE1090E2EF08C91A
:100F900001001190F1EF80A0A1F2A0A0A3F214CE65
:100FA00003001190F1EF129CE8EFC0901190A2F2B3
:100FB000C5F081E01390E8EF1290ECEF81E0139020
:100FC000ECEF01001190A3F200E000F0540E10804D
:100FD0000220027008C800001190F1EF010011908A
:100FE000F0EF020019CE1290EAEF1292ECEF27F028
:100FF0000FC9129CE8EFC0901190A2F2C5F081E0F9
:101000001390E8EF25F081E01390ECEF010004CE9F
:1010100000001190F1EF02001190A3F200E000F047
:06102000540E129CE8EFE3
:0A1026001090A0F2C1901290E8EFC4
:1010300081E01390E8EF1290ECEF81E01390ECEF79
:101040001290EAEF1292ECEF27F008C90104FFE0DA
:1010500027F001C881041194A3F206CE000011907C
:0E106000F1EF02001190A3F200E000F0540E38
:020A6E0082A064
:100A7000A3F200001190E2EF00E01390E4EF139076
:100A8000E6EF1390E8EF1390EAEF1390ECEF13907A
:0C0A9000EEEF1190F0EF1190F1EF1FFE5F
:0A0086000000000000000000000070
:060090000000000000006A
:040B1C005EF4000083
:100B2000119011F0119012F0119013F0119014F037
:100B3000119015F0119016F0119017F0119018F017
:100B4000119019F011901AF011901BF011901CF0F7
:100B500011901DF011901EF011901FF000E445F06F
:100B600046F04402060309A290EE81E41F7400558A
:060B7000F6C51EF41FFE95
:0406240008ED1FFEC0
:04062000F7EB1FFED7
:080598006EF8008825FA1F70BF
:1005A00003C17FE02EF81FFE25F206C980800001FE
:1005B00006F009AA90EE07CE8080000106F0440202
:0A05C000060309A290EE00E0EDCE64
:02000A000FFEE7
:020644001FFE97
:040ABC00000106F03F
:060AC00008A090EE02F018
:02119E00CEFF82
:1011A0006EF0109000F04EF0000001F0BC0A0EF05E
:0811B000119000F02EF08EFFFB
:0210DE00CEF949
:1010E0006EF0109000F04EF0010001F0BC0A0EF01E
:0A10F000119000F02EF08EF90FFEB3
:04032C00CEF96EF0A8
:10033000109000F04EF0020001F0BC0A0EF0119097
:0803400000F02EF08EF90FFE13
:08034800CEF96EF0109000F0F8
:100350004EF0030001F0BC0A0EF0119000F02EF0F8
:040360008EF90FFE05
:0A10A600CEF96EF0109000F04EF04D
:1010B000040001F0BC0A0EF0119000F02EF08EF941
:0210C0000FFE21
:0401FC00CEF96EF0DA
:10020000109000F04EF0050001F0BC0A0EF01190C5
:0802100000F02EF08EF90FFE44
:08021800CEF96EF0109000F029
:100220004EF0060001F0BC0A0EF0119000F02EF026
:040230008EF90FFE36
:02106E00CEF9B9
:101070006EF0109000F04EF0070001F0BC0A0EF088
:0A108000119000F02EF08EF90FFE23
:06108A00CEF96EF010909B
:1010900000F04EF0080001F0BC0A0EF0119000F0D4
:0610A0002EF08EF90FFE98
:04120C00CEF96EF0B9
:10121000109000F04EF0090001F0BC0A0EF01190A1
:0812200000F02EF08EF90FFE24
:06111A00CEF96EF010900A
:1011200000F04EF00A0001F0BC0A0EF0119000F041
:061130002EF08EF90FFE07
:1011F000CEF96EF0109000F04EF00B0001F0BC0A3A
:0C1200000EF0119000F02EF08EF90FFEA1
:0A125600CEF96EF0109000F04EF09B
:101260000C0001F0BC0A0EF0119000F02EF08EF987
:021270000FFE6F
:0C03F400CEF96EF0109000F04EF00D00FD
:1004000001F0BC0A0EF0119000F02EF08EF90FFEF4
:10041000CEF96EF0109000F04EF00E0001F0BC0A24
:0C0420000EF0119000F02EF08EF90FFE8F
:0804C800CEF96EF0109000F077
:1004D0004EF00F0001F0BC0A0EF0119000F02EF06B
:0404E0008EF90FFE84
:0C04E400CEF96EF0109000F04EF0100009
:1004F00001F0BC0A0EF0119000F02EF08EF90FFE04
:08038800CEF96EF0109000F0B8
:100390004EF0110001F0BC0A0EF0119000F02EF0AA
:0403A0008EF90FFEC5
:0C036400CEF96EF0109000F04EF0120088
:1003700001F0BC0A0EF0119000F02EF08EF90FFE85
:04042C00CEF96EF0A7
:10043000109000F04EF0130001F0BC0A0EF0119085
:0804400000F02EF08EF90FFE12
:0811B800CEF96EF0109000F07A
:1011C0004EF0140001F0BC0A0EF0119000F02EF069
:0411D0008EF90FFE87
:08044800CEF96EF0109000F0F7
:100450004EF0150001F0BC0A0EF0119000F02EF0E5
:040460008EF90FFE04
:0C11D400CEF96EF0109000F04EF0160006
:1011E00001F0BC0A0EF0119000F02EF08EF90FFE07
:0E0A5200CEF96EF0109000F04EF0170001F09B
:0E0A6000BC0A0EF0119000F02EF08EF90FFE81
:0E09B200CEF96EF0109000F04EF0180001F03B
:0E09C000BC0A0EF0119000F02EF08EF90FFE22
:0209CE00CEF960
:1009D0006EF0109000F04EF0190001F0BC0A0EF01D
:0A09E000119000F02EF08EF90FFECA
:0609EA00CEF96EF0109042
:1009F00000F04EF01A0001F0BC0A0EF0119000F069
:060A00002EF08EF90FFE3E
:0A113600CEF96EF0109000F04EF0BC
:101140001B0001F0BC0A0EF0119000F02EF08EF999
:021150000FFE90
:0E10C200CEF96EF0109000F04EF01C0001F020
:0E10D000BC0A0EF0119000F02EF08EF90FFE0B
:1001E000CEF96EF0109000F04EF01D0001F0BC0A48
:0C01F0000EF0119000F02EF08EF90FFEC2
:08062800CEF96EF0109000F015
:100630004EF01E0001F0BC0A0EF0119000F02EF0FA
:040640008EF90FFE22
:020008009E1147
:04000C00DE100A00F8
:100010002C034803A6100A00FC0118026E108A1077
:100020000C120A001A110A000A000A00F0115612F6
:100030000A000A00F40310040A000A000A000A0079
:10004000C804E4040A000A000A000A0088036403E2
:100050000A000A000A000A002C04B8114804D4114E
:10006000520AB209CE09EA090A0036110A00C21082
:08007000E0010A000A00280665
:0A0AC60001F0E20C0EE05EF0780291
:100AD000000300E001F0A80302E1FF004EF0A200D5
:100AE00000015EF002004EF006020003500001F02B
:100AF000760B06E101F08405FF004EF0DC00EE010C
:100B00005EF002004EF006020003500001F05211A8
:0C0B100006E180A009F08FFE8FFEECCE05
:0E0CE200CEF880A02AF0A2A02AF0B0A02AF03E
:100CF000E0A02AF0F2A02AF0010011902CF0C3002D
:100D000011902EF00F0011902FF001F0060A01F063
:100D1000C80701F0DE0B01F0640401F0FA1080A0B6
:100D200051F290A051F201F0200601F01C0B0000DE
:100D3000119017F0119016F0119015F0119014F019
:100D4000119013F0119012F0119011F0119010F019
:100D500011901FF011901EF011901DF011901CF0D9
:100D600011901BF011901AF0119019F0119018F0D9
:100D7000B2A017F0A40203030F0001F0980580A0B1
:100D800014F000020E030C0001F09805F0A012F020
:100D9000F2A01AF001F02406010011900FF001F00A
:100DA000840500004EF040021F03010001F08C0892
:100DB00002E1AC0001015EF040021F03020001F0FD
:100DC000580602E101F0B601F2A059F2F0A05BF280
:100DD000F0A05AF2F2A05DF2F2A05CF2F2A058F29A
:020DE0008EF291
:0803A800CEF85EFE1AAE5EFA0B
:1003B00025FA00001190FFEF01F0C20BEE000D01D5
:1003C0005EF044B2A5F001F0CA0502E102CE01F0F0
:1003D00084051090FFEF0170FAC844B01EFAEAA13C
:0403E0001EFE8EF27D
:0E115200CEF85EFE1AAE6EF825FA0088000098
:101160001190FEEF01F06E0A460006015EF048D0D5
:1011700000015EF046B05EF044D000015EF0A5F2E2
:10118000808001F0000508E102CE01F08405109096
:0E119000FEEF0170FAC82EF8EAA11EFE8EF2E4
:0A0B7600CEF85EFE1AAE6EF825FA06
:100B8000008800001190FEEF01F06E0A4600060199
:100B90005EF048D000015EF046B05EF044D0000147
:100BA0005EF0A5F2808001F0021308E102CE01F0B0
:100BB00084051090FEEF0170FAC82EF8EAA11EFE1F
:020BC0008EF2B3
:0C0584005A0011900EF081A00EF0FAC990
:08059000A50011900EF01FFE02
:020DEE00CEF83D
:100DF00001F0340201001190FFEF01F080038EF248
:0A064600CEF801F00C0E0100119037
:08065000FEEF01F080038EF2C1
:0C0E0000CEF801F00C0E01F080038EF221
:0803800001001190DBEE1FFEED
:0403A40000F034022F
:0610FA0082A002F092A0AA
:1011000002F0B0A002F0A2A002F090A003F080A034
:0A11100003F0F0A003F008ED1FFE4D
:0A0A060082A051F292A051F2A2A0CA
:100A100051F280A053F280A052F290A053F290A025
:100A200052F2A0A053F2A0A052F282A055F282A0EE
:100A300054F292A055F292A054F2A2A055F2A2A0B4
:100A400054F282A050F292A050F2A2A050F200F014
:020A500084051B
:0807C80082A059F292A059F23F
:1007D000A2A059F2B2A059F2C2A059F2D2A059F285
:1007E000E2A059F2F2A059F280A05BF280A05AF286
:1007F00090A05BF290A05AF2A0A05BF2A0A05AF2E7
:10080000B0A05BF2B0A05AF2C0A05BF2C0A05AF256
:10081000D0A05BF2D0A05AF2E0A05BF2E0A05AF2C6
:10082000F0A05BF2F0A05AF282A05DF282A05CF22E
:1008300092A05DF292A05CF2A2A05DF2A2A05CF296
:10084000B2A05DF2B2A05CF2C2A05DF2C2A05CF206
:10085000D2A05DF2D2A05CF2E2A05DF2E2A05CF276
:10086000F2A05DF2F2A05CF282A058F292A058F2DF
:10087000A2A058F2B2A058F2C2A058F2D2A058F2E8
:0C088000E2A058F2F2A058F200F084054B
:020BDE0082A0F3
:100BE00061F292A061F2A2A061F2B2A061F2C2A091
:100BF00061F2D2A061F2E2A061F2F2A061F280A003
:100C000063F280A062F290A063F290A062F2A0A0D2
:100C100063F2A0A062F2B0A063F2B0A062F2C0A042
:100C200063F2C0A062F2D0A063F2D0A062F2E0A0B2
:100C300063F2E0A062F2F0A063F2F0A062F282A0A0
:100C400065F282A064F292A065F292A064F2A2A082
:100C500065F2A2A064F2B2A065F2B2A064F2C2A0F2
:100C600065F2C2A064F2D2A065F2D2A064F2E2A062
:100C700065F2E2A064F2F2A065F2F2A064F282A052
:100C800060F292A060F2A2A060F2B2A060F2C2A0F4
:100C900060F2D2A060F2E2A060F2F2A060F200F096
:020CA0008405C9
:0C04640080A069F290A069F2A0A069F2EB
:10047000B0A069F2C0A069F2D0A069F280A06BF2CE
:1004800080A06AF290A06BF290A06AF2A0A06BF23A
:10049000A0A06AF2B0A06BF2B0A06AF2C0A06BF2AA
:1004A000C0A06AF2D0A06BF2D0A06AF282A068F27B
:1004B00092A068F2A2A068F2B2A068F2C2A068F2AC
:0804C000D2A068F200F08405EF
:02000200721278
:010096000069
:0401AC0080250000AA
:0601B00000020000000047
:020006000000F8
:0E00A2001FA000070000000F4E07C0C20000A4
:1000B000000100000000000000000000000000003F
:1000C0000000000000000000000000000000000030
:1000D0000000180000000000000008000000000000
:1000E0000000000000002600510028000000000071
:1000F0000000000000000000000000000000000000
:1001000000000000000000000000000000000000EF
:1001100000000000000000000000000000000000DF
:1001200000000000000000000000000000000000CF
:1001300000000000000000000000000000000000BF
:1001400000000000000000000000000000000000AF
:10015000000000000000000000000000000000009F
:10016000000000000000000000000000000000008F
:10017000000000000000000000000000000000007F
:10018000000000000000000000000000000000006F
:10019000000000000000000000000000000000005F
:0201A00000005D
:08007800537461727420507290
:060080006F6772616D0064
:010097000068
:020000008EEE82
:02000400741274
:0E12720001CEFFCE00E000E200E400E600083E
:10128000E0098AF0579088E8F079FCC10078FAC14B
:101290005A0CA50D119C0EF081A00EF0FBC9119DFA
:1012A0000EF0000A0CF0A201AF905290FF7002C83D
:1012B000FF7120C9AF905292AF905294AF90509668
:1012C000AF90509780E4F0C901A20BC801A409C8EF
:1012D0006F90029882E07F90239882E2FEE4F8C843
:1012E000E3CE6F90009881E07F90219881E2FFE447
:1012F000F8C8DACE01F0E4030000119000F000F02D
:02130000C60A1B
:0203E4001FFEFA
:0801A2008600E2EF1C000000E2
:0201AA00FFFF55
:107FE000FFFFFFFFFFFFFFFFFFFFFFFFFFFFFFFFA1
:107FF000FFFFFFFFFFFFFFFFFFFFFFFFFFFFFFFF91
:08065800CEF85EFE1AAE5EFC56
:100660005EF85EF4008800700FC9017002C800F0E7
:100670007E07027002C800F086077FE01EF41EF8B5
:100680001EFCEAA11EFE8EF20000800100E244BCC6
:100690006EF0C29002B26EF001F09C0A04E12EF0FE
:1006A000007000510052005302C87EE0E7CEFFE028
:1006B00005F404D0037002C37DE0E0CE05D00270E3
:1006C00002C37CE0DBCE06D0017002C37BE0D6CE55
:1006D00007D0017002C37AE0D1CE08D0017002C306
:1006E00079E0CCCE00E01390F4EF1390F6EF139086
:1006F000F8EF1390FAEF1190FCEF82A091F201F065
:100700009E07109092F20089F920008980801A904B
:100710009081038110801030119092F2C2A092F269
:10072000109093F200898020008944BC05D02A9063
:1007300004D1038106D04A90138007D15A910381D6
:1007400008D06A90138090810381119193F21194E3
:1007500094F2109095F20089F020008950800F20CB
:1007600090810381119195F282A096F292A096F267
:10077000A2A096F2B2A096F200E000F07C0600E0A3
:1007800001E200F08E0625F000E27B937B927B91E4
:0E0790007A903B933B923B913A9000F08E069C
:0605CA005EFE1AAE5EF8B1
:1005D00005F882A091F282A092F21390F4EF1392A8
:1005E000F6EF00E01390F8EF42B01390FAEF00003E
:1005F0001190FCEF007200530FC38090119090F2A5
:100600001290F4EF81E01390F4EF1290F8EF81E094
:100610001390F8EF80A091F21EF8EAA11EFE1FFED3
:0C023400CEF85EFC109092F201200070E9
:1002400034C81290F6EF1292F8EF27F019C9109007
:1002500096F20820007012C8129CF4EFC090119022
:1002600090F2C5F081E01390F4EF25F081E0139057
:10027000F8EF80A091F200E01EFC8EF27FE0FCCE51
:10028000109091F2012000700EC81290FAEF09C987
:1002900005FC00E01390FAEF1092FCEF1290F6EFDD
:1002A000C3F001E0E9CE7EE0E7CE1290F6EF1292C5
:1002B000F8EF27F02CC9109096F2072000821090DA
:1002C000FCEF23801190FCEF82A096F292A096F2B0
:1002D000A2A096F2129CF4EF109090F2C1901290AE
:1002E000F4EF81E01390F4EF1290F8EF81E01390B7
:1002F000F8EF01A209C81290F6EF1292F8EF27F07A
:1003000006C900E000F07802010001F0E603129057
:10031000FAEF09C905FC00E01390FAEF1092FCEF28
:0C0320001290F6EFC3F001E000F078024C
:0E0BC20082A091F200E01390F4EF1390F6EF92
:0E0BD0001390F8EF1390FAEF1190FCEF1FFE58
:0A03E600008210908EEE238011902B
:0403F0008EEE1FFE70
:0A01B60092A059F290A05AF290A016
:1001C0005BF292A05CF290A05DF280A059F280A058
:1001D0005AF282A05BF282A05CF282A05DF21FFE66
:02079E0092A027
:1007A00059F292A05AF292A05BF292A05CF292A04F
:1007B0005DF282A059F282A05AF282A05BF282A07E
:0807C0005CF282A05DF21FFE55
:08009800000000000000000060
:0200A00000005E
:040A9C00CEF97EF021
:100AA0006EF85EFC1AACCBF012005498349001F052
:0C0AB000281235901EFC2EF83EF08EF34C
:08122800200D00E400E61B9715
:101230001B961B951B941B931B921B911A9087F472
:10124000A586B58705C188849985A986B98700A038
:06125000FF1DEDC81FFEAA
:0C0DE200CEF86EF801F0A20C2EF88EF294
:0E0CA200007302C829F01BCE6EF405F825FA87
:100CB0001D981C991D9A1C9B007BFAC8A9F880847A
:100CC000208844F8308644F6618907F803C32888F1
:100CD0003989FF148880998105F2408000012EF443
:020CE0001FFEF5
:00000001FF
